:0300000002019268
:0C019200787FE4F6D8FD7581380201D9B1
:100436008F328D3312052B7FA01203C5120501AF33
:10044600321203C5120501AF331203C512050102AC
:02045600053C63
:020395008F32A5
:1003970012052B7FA01203C5120501AF321203C548
:1003A70012050112052B7FA11203C51205011200C8
:0D03B700038F337F0112050D12053CAF339B
:0103C4002216
:0A04AE00EF1FAC0670011E4C600F3A
:0D04B800007532027533C7D533FDD532FA19
:0304C50080E722AB
:09052B00D2A0D2A1C2A0C2A122FB
:07053C00C2A0D2A1D2A0224F
:0203C500AD0782
:1003C700E4FB74807E00A803088006CEA2E713CE64
:1003D70013D8F8FFEDF582EF558224FF92A0D2A142
:0603E700C2A10BBB08DC03
:0103ED0022ED
:10000300E4FFD2A0FED2A130A00D7480A806088020
:0D00130002C313D8FC4207C2A10EBE08E8CC
:0100200022BD
:0A050D00EF24FF92A0D2A1C2A122A8
:0B050100D2A0D2A1A2A0E433FFC2A14F
:01050C0022CC
:0604F200C2A58F80D2A715
:0804F8007F027EEFDEFEDFFC57
:0105000022D8
:0A051700C2A61204F2C2A70204F803
:10045800CFCDCFCECCCE12013D7C007D0A12013D1E
:04046800ED2430FF50
:0A046C00D2A61204F2C2A70204F89F
:1004C800AE07BE0104ED148006BE0209ED243F44C8
:0604D80080FF120517224F
:1004DE007F381205177F0C1205177F061205177F3E
:0404EE0001020517EB
:0A052100AC031204C8AF0402046C1E
:060413008B328A338934AC
:100419001204C8E4FDAB32AA33A9348D8275830076
:0C0429001200FEFF600612046C0D80E95A
:0104350022A4
:0C0362007F0AEA24FFFDE434FFFC7E006B
:08036E008E358F368C378D3877
:100376007F017E00E4FBEBC39538E5376480F874B3
:0E0386008098500AAC35AD3612012B0B80E882
:010394002246
:040476008A238B2426
:10047A001204C8AA25EAD39400400D120362AC23E1
:08048A00AD241204581A80EDA4
:010492002247
:1002B7001204C8C3EA64809480400B7F2B12046C3D
:1002C7008A1E8B1F800E7F2D12046CC3E49BF51FC3
:1002D700E49AF51EAA1DEAD39400400D120362ACFE
:0902E7001EAD1F1204581A80ED2F
:0102F00022EB
:0402F1008A288B29A3
:1002F5001204C8AA2AEAD3940040297F1012036485
:10030500AC28AD29CFCDCFCECCCE12013DEF540FC9
:10031500FEC3940AEE5004243080022437FF1204F1
:040325006C1A80D1FD
:0103290022B1
:04032A008A2D8B2E5F
:10032E001204C8AA2FEAD394004028EA24FFFDE461
:10033E0034FFFC7F027E0012036EAC2DAD2ECFCDAE
:10034E00CFCECCCE12013DEF54012430FF12046CFF
:03035E001A80D230
:010361002279
:10021E00454550524F4D20446174613A004545505A
:10022E00524F4D20446174613A0D0A000D0A576118
:10023E006974204E657720446174612E2E2E0D0A4E
:10024E0000536176696E672E2E2E00536176696EAD
:10025E00672E2E2E0D0A0053617665204F4B21001E
:0B026E0053617665204F4B210D0A0004
:05054300010800C100E9
:100026001204931204DE7BFF7A02791E7D017F01A2
:100036001204137BFF7A02792B1203EEE4F530AF3C
:10004600301203958F31E5316003B4FF0974092539
:1000560030F8E4F6801074092530F8A6310530E54D
:1000660030C3941040D97B007A0079097D017F0264
:100076001204137B007A0079091203EE7BFF7A02E1
:10008600793A1203EE3000FD1204DE7BFF7A027924
:100096004F7D017F011204137BFF7A027959120307
:1000A600EEE4F530E530D39508501774092530F89D
:1000B600E6FDAF301204367F057E001204AE053031
:1000C60080E27BFF7A0279657D017F021204137B51
:0F00D600FF7A02796E1203EEE4F508C20080A6ED
:030023000202795D
:10027900C0E0C0D075D000C00030982BC2982000D3
:1002890026E599640A6005E599B40D0B74092508FA
:10029900F87600D2008010E508C3940F500974095C
:0E02A9002508F8A6990508D000D0D0D0E03284
:1004930053877F75985053890F438920758BFD755A
:0B04A3008DFDC2ABD28ED2AFD2AC22D6
:080534008F993099FDC2992254
:1003EE008B328A338934AB32AA33A9341200E560DA
:1003FE00130534E5347002053314F91200E5FF12CB
:05040E00053480E2222C
:10019E00020026E493A3F8E493A34003F68001F251
:1001AE0008DFF48029E493A3F85407240CC8C33362
:1001BE00C4540F4420C8834004F456800146F6DF31
:1001CE00E4800B0102040810204080900543E47E79
:1001DE00019360BCA3FF543F30E509541FFEE49326
:1001EE00A360010ECF54C025E060A840B8E493A3ED
:1001FE00FAE493A3F8E493A3C8C582C8CAC583CA18
:10020E00F0A3C8C582C8CAC583CADFE9DEE780BECF
:0105480000B2
:1000E500BB010689828A83E0225002E722BBFE0219
:0900F500E32289828A83E493224C
:1000FE00BB010CE58229F582E5833AF583E02250B7
:10010E0006E92582F8E622BBFE06E92582F8E22200
:0D011E00E58229F582E5833AF583E493221A
:10012B00EF8DF0A4A8F0CF8CF0A428CE8DF0A42EE8
:02013B00FE22A2
:10013D00BC000BBE0029EF8DF084FFADF022E4CCA6
:10014D00F875F008EF2FFFEE33FEEC33FCEE9DEC6F
:10015D00984005FCEE9DFE0FD5F0E9E4CEFD22EDB5
:10016D00F8F5F0EE8420D21CFEADF075F008EF2FFF
:10017D00FFED33FD4007985006D5F0F222C398FDF0
:05018D000FD5F0EA228D
:00000001FF
