:0300000002014AB0
:0C014A00787FE4F6D8FD7581500200A417
:03000B0002000EE2
:0D000E00C0E0C0D075D000C000C004C00725
:10001B00758A66758CFCE4FF740C2FF8E66401702E
:10002B0032EF25E02408F8E6FC08E6D39400EC94C4
:10003B00004020EF25E02408F808E616187001169A
:10004B00EF25E02408F8E6FC08E64C7006740C2F4C
:07005B00F876000FBF02C19F
:0B006200D007D004D000D0D0D0E03296
:1000A4005389F0438901758A66758CFCC28DD28CA4
:1000B400D2A9D2AFC2B97E017F18E4FD12006D7ED1
:1000C400017F317D0112006DE4F50E784FE6F58174
:0100D4002209
:10006D00AC07EDC43354E0240FF8A604AF06EDC47D
:10007D003354E02410F8A607EDC43354E02410FFE8
:10008D00744F2DF8A607740C2DF8E4F6ED25E02439
:07009D0008F8E4F608F62262
:1000D500C2AF744F250EF8A681AF0EEF045401FF91
:1000E500240CF8E66007D2AF00C2AF80EE8F0E7425
:0800F5004F2FF8E6F581D2AFB0
:0100FD0022E0
:1000FE00C2AFE50E25E02408F8A60608A607740C84
:0A010E00250EF87601D2AF0200D5ED
:10011800C2A0C2A1C2A2C2A3B2A0B2A1B2A2B2A3FB
:090128007FF47E011200FE80EF5D
:10013100C2A4C2A5C2A6C2A7B2A4B2A5B2A6B2A7C2
:090141007FE87E031200FE80EF4E
:00000001FF
